:020000040800F2
:1000000000060020950100089D0100089F010008DE
:10001000A1010008A3010008A501000800000000DC
:10002000000000000000000000000000A701000820
:10003000A901000800000000AB010008AD010008A4
:10004000AF010008AF010008AF010008AF010008D0
:10005000AF010008AF010008AF010008AF010008C0
:10006000AF010008AF010008AF010008AF010008B0
:10007000AF010008AF010008AF010008AF010008A0
:10008000AF010008AF010008AF0100080000000048
:10009000000000000000000000000000AF010008A8
:1000A000AF010008AF010008AF010008AF01000870
:1000B000AF010008AF010008AF010008AF01000860
:1000C000AF010008AF010008AF010008AF01000850
:1000D000AF010008AF010008AF01000800000000F8
:1000E000AF010008AF010008AF01000800000000E8
:1000F000000000000000000000000000AF01000848
:1001000000000000AF010008AF010008AF010008C7
:1001100000000000000000000000000000000000DF
:10012000AF010008AF010008AF010008AF010008EF
:10013000AF01000800000000000000000000000007
:10014000000000000000000000000000AF010008F7
:10015000AF010008AF010008AF010008AF010008BF
:10016000AF010008AF01000800000000000000001F
:10017000000000000000000000000000000000007F
:1001800000000000AF0100080000000000000000B7
:10019000AF0100080948804709480047FEE7FEE72D
:1001A000FEE7FEE7FEE7FEE7FEE7FEE7FEE7FEE727
:1001B00004480549054A064B70470000DD01000868
:1001C000FA010008000000200006002000020020C4
:1001D00000020020704770477047000056490868C9
:1001E00040F003000860554908684FF000000860BF
:1001F000534908684FF055300860040300030200BB
:1002000050494FF0000008604F4E504A10680146B8
:100210004FF6FF3440EA0400A04224D04B4A106855
:1002200001464EF6FF7440EA0400A04228D0474A37
:10023000106801464DF6FF7440EA0400A0422CD03D
:10024000424A106801464BF6FF7440EA0400A0429F
:1002500030D03E4A1068014647F6FF7440EA040079
:10026000A04234D0D1E7337800F03EF84FF0640379
:1002700000F046F82A46334900F049F80A60C4E71E
:10028000737800F031F84FF0640300F039F82A4633
:100290002C4900F03CF80A60B7E7B37800F024F886
:1002A0004FF0640300F02CF82A46264900F02FF89E
:1002B0000A60AAE7F37800F017F84FF0640300F043
:1002C0001FF82A461F4900F022F80A609DE733799B
:1002D00000F00AF84FF0640300F012F82A461949BA
:1002E00000F015F80A6090E74FF001044FF00005A8
:1002F00004FB03F405F10105032D00D0F8E7F746F0
:10030000B4FBF3F505FB03F5A4EB0505F74614462E
:100310004FF00A0300B5FFF7F3FF5DF804EB4FF071
:100320000A03B2FBF3F34FEA03134FF0000242EA71
:10033000050242EA0302F746303802400004024058
:100340000000024014000240FA01000810040240BC
:0400000500000000F7
:00000001FF
