:020000040800F2
:1000000068060020350200083D0200083F02000893
:1000100041020008430200084502000800000000F9
:10002000000000000000000000000000470200087F
:1000300049020008000000004B0200084D020008C1
:100040004F0200084F0200084F0200084F0200084C
:100050004F0200084F0200084F0200084F0200083C
:100060004F0200084F0200084F0200084F0200082C
:100070004F0200084F0200084F0200084F0200081C
:100080004F0200084F0200084F0200080000000065
:100090000000000000000000000000004F02000807
:1000A0004F0200084F0200084F0200084F020008EC
:1000B0004F0200084F0200084F0200084F020008DC
:1000C0004F0200084F0200084F0200084F020008CC
:1000D0004F0200084F0200084F0200080000000015
:1000E0004F0200084F0200084F0200080000000005
:1000F0000000000000000000000000004F020008A7
:10010000000000004F0200084F0200084F020008E4
:1001100000000000000000000000000000000000DF
:100120004F0200084F0200084F0200084F0200086B
:100130004F02000800000000000000000000000066
:100140000000000000000000000000004F02000856
:100150004F0200084F0200084F0200084F0200083B
:100160004F0200084F0200080000000000000000DD
:10017000000000000000000000000000000000007F
:10018000000000004F020008000000000000000016
:100190004F02000800F002F800F03CF80AA090E8D6
:1001A000000C82448344AAF10107DA4501D100F032
:1001B00031F8AFF2090EBAE80F0013F0010F18BFC3
:1001C000FB1A43F0010318473804000058040000EC
:1001D000103A24BF78C878C1FAD8520724BF30C873
:1001E00030C144BF04680C60704700000023002445
:1001F00000250026103A28BF78C1FBD8520728BF37
:1002000030C148BF0B6070471FB500F0F3F91FBD48
:1002100010B510BD00F031F81146FFF7F5FF00F002
:100220002BF900F04FF803B4FFF7F2FF03BC00F026
:1002300057F800000948804709480047FEE7FEE7F5
:10024000FEE7FEE7FEE7FEE7FEE7FEE7FEE7FEE786
:1002500004480549054A064B70470000F9030008A9
:100260009501000868000020680600206802002050
:1002700068020020704770477047754600F02CF800
:10028000AE4605006946534620F00700854618B083
:1002900020B5FFF7DDFFBDE820404FF000064FF02E
:1002A00000074FF000084FF0000B21F00701AC46AB
:1002B000ACE8C009ACE8C009ACE8C009ACE8C009CA
:1002C0008D46704710B50446AFF300802046BDE868
:1002D0001040FFF7A8BF000000487047040000204E
:1002E00001491820ABBEFEE726000200704700005F
:1002F00010B5044600200B4908600B4844610420F7
:100300000860002000F0AAF8002006490860042CCC
:1003100003DA042000F0A2F802E0012000F09EF8C9
:1003200010BD0000140802400000024010B5044651
:100330000120074908600748446105200860002043
:1003400000F08CF801200249086000F087F810BD29
:10035000140802400000024000B51E2000F07EF8A4
:100360003020FFF7C5FF0A2000F078F83020FFF7B3
:10037000BFFF012000F072F83020FFF7B9FF3820EE
:10038000FFF7B6FF0620FFF7B3FF0120FFF7B0FF2E
:100390000F20FFF7ADFF00BD0548006840F00100E9
:1003A000034908604FF0553002490860704700006B
:1003B00030380240000002400548006840F002006A
:1003C000034908604FF0AA400249086070470000E6
:1003D00030380240000402400548006840F0040044
:1003E000034908604FF0553002490860704700002B
:1003F00030380240000802401448006840F47000A1
:10040000124908601248006840F001001049086075
:1004100000200F49083108600D4800680D49084068
:100420000B4908600C48091D0860081F006820F48B
:100430008020091F0860002005490C3108604FF03A
:1004400000600249803908607047000088ED00E0D4
:1004500000380240FFFFF6FE10300024002108E0C3
:10046000002201E000BF521C44F620639A42F9DBEF
:10047000491C8142F4DB704708B557A00068009022
:100480006C46FFF789FFFFF797FFFFF7A5FFFFF720
:1004900063FF9FE08020FFF72BFF9DF80000FFF730
:1004A00045FF9DF80100FFF741FF9DF80200FFF7AF
:1004B0003DFF9DF80300FFF739FF3220FFF7CEFF25
:1004C0004EF6FF7045490860081F006844490860FF
:1004D00008460068A0F56B40FF3888B1B0F5007F92
:1004E00008D0B0F5407F11D13121204600F07AF8D4
:1004F00004460BE03221204600F074F8044605E083
:100500003321204600F06EF8044600BF00BF4DF6D0
:10051000FF7032490860081F0068314908600846CA
:100520000068A0F55B40FF3888B1B0F5007F08D0C7
:10053000B0F5407F11D13421204600F053F8044635
:100540000BE03521204600F04DF8044605E0362149
:10055000204600F047F8044600BF00BF4BF6FF708E
:100560001E490860081F00681D49086008460068A9
:10057000A0F53B40FF3888B1B0F5007F08D0B0F55A
:10058000407F11D13721204600F02CF804460BE0C3
:100590003821204600F026F8044605E0392120469F
:1005A00000F020F8044600BF00BF47F6FF700B497B
:1005B0000860081F00680A49086008460068A0F53E
:1005C000FA40FF3828B93021204600F00BF80446E5
:1005D00000BF00BF5EE70000333033321404024036
:1005E000000000204278027082784270C2788270E7
:1005F000C17070474FF04070E1EE100A7047000084
:10060000200600080000002004000000D0010008BF
:10061000240600080400002064060000EC01000825
:0406200000000000D6
:0400000508000235B8
:00000001FF
