:020000040800F2
:1000000060060020190200082102000823020008EF
:10001000250200082702000829020008000000004D
:100020000000000000000000000000002B0200089B
:100030002D020008000000002F0200083102000815
:1000400033020008330200083302000833020008BC
:1000500033020008330200083302000833020008AC
:10006000330200083302000833020008330200089C
:10007000330200083302000833020008330200088C
:1000800033020008330200083302000800000000B9
:100090000000000000000000000000003302000823
:1000A000330200083302000833020008330200085C
:1000B000330200083302000833020008330200084C
:1000C000330200083302000833020008330200083C
:1000D0003302000833020008330200080000000069
:1000E0003302000833020008330200080000000059
:1000F00000000000000000000000000033020008C3
:100100000000000033020008330200083302000838
:1001100000000000000000000000000000000000DF
:1001200033020008330200083302000833020008DB
:100130003302000800000000000000000000000082
:100140000000000000000000000000003302000872
:1001500033020008330200083302000833020008AB
:100160003302000833020008000000000000000015
:10017000000000000000000000000000000000007F
:100180000000000033020008000000000000000032
:100190003302000800F002F800F02EF80AA090E800
:1001A000000C82448344AAF10107DA4501D100F032
:1001B00023F8AFF2090EBAE80F0013F0010F18BFD1
:1001C000FB1A43F00103184778030000880300007E
:1001D0000023002400250026103A28BF78C1FBD850
:1001E000520728BF30C148BF0B6070471FB500F0F1
:1001F00091F91FBD10B510BD00F031F81146FFF7A1
:10020000F5FF00F099F800F04FF803B4FFF7F2FFA4
:1002100003BC00F057F80000094880470948004730
:10022000FEE7FEE7FEE7FEE7FEE7FEE7FEE7FEE7A6
:10023000FEE7FEE704480549054A064B7047000003
:10024000D50200089501000860000020600600202B
:1002500060020020600200207047704770477546BA
:1002600000F02CF8AE4605006946534620F0070022
:10027000854618B020B5FFF7DDFFBDE820404FF000
:1002800000064FF000074FF000084FF0000BAC469F
:10029000ACE8C009ACE8C009ACE8C009ACE8C009EA
:1002A00021F007018D46704710B50446AFF300807A
:1002B0002046BDE81040FFF7A8BF00000048704787
:1002C0000000002001491820ABBEFEE72600020016
:1002D0007047000010B50E480F4CD0F8801041F464
:1002E0007001C0F880100B490A6842F001020A60F0
:1002F00000228A600B6823400B60084B4B600B6840
:1003000023F480230B60CA604FF00061016010BDD0
:1003100008ED00E000380240FFFFF6FE1030002438
:1003200000218142A8BF704744F6206212B100BF8D
:10033000013AFBE70131F4E788B04E4801AC534E77
:10034000534F4FF0030802254BF6FF3947F6FF7A6B
:1003500047F6FF5B059047A041680089ADF81C0097
:100360004748069190E80E00C0680EC404904548C6
:100370004FF055320024016841F00101016042490B
:100380007250016841F0020101604FF0AA403060F4
:100390004EF6FF70386001A805A900F07BF84EF614
:1003A000FF704EF6FF313860306988420AD04EF651
:1003B000FF51884209D04EF6FF6188420BD101946B
:1003C000012004E00320019401E001940220049044
:1003D000CDE9028502E028464546A0464DF6FF716C
:1003E0004DF6FF323960316991420BD04DF6FF5224
:1003F00091420BD04DF6FF6291420ED1CDF80480B0
:10040000042106E00621CDF8048002E0CDF8048046
:1004100005210491CDE9025002E0014628464546F7
:100420004BF6FF723A6032694A450AD04BF6FF53E9
:100430009A4209D04BF6FF639A420AD101950722EE
:1004400004E00922019501E00195082202AB07C3EF
:1004500002E00A4601462846C7F800A0154688462D
:10046000044633695B4596D101AB002590460C46A6
:1004700027C390E73F065B4F666D7D077F6F0000E7
:10048000300500083038024000FCFFFF0004024045
:10049000140402402DE9F843054600684FF00008B7
:1004A0001B4E0C460F5C1948C0F8008081460120A5
:1004B000B04707F50060C9F800000820B047686839
:1004C000275C0120C9F80080B04707F58060C9F8B3
:1004D00000000820B047A868275C0120C9F8008008
:1004E000B04707F50070C9F800000820B047E86879
:1004F000245C0120C9F80080B04704F580703146C3
:10050000C9F800000820BDE8F8430847140002407D
:1005100021030008F1EE100A4FF6FF71C0F2C0315E
:1005200020EA010040F04070E1EE100A7047000040
:1005300003000000000000000300000002000000B3
:10054000500500080000002060060000D0010008EF
:0400000508000219D4
:00000001FF
